{
  "_format": "hh-sol-artifact-1",
  "contractName": "JejuBadgeNFT",
  "sourceName": "contracts/JejuBadgeNFT.sol",
  "abi": [
    {
      "inputs": [
        {
          "internalType": "address",
          "name": "initialOwner",
          "type": "address"
        }
      ],
      "stateMutability": "nonpayable",
      "type": "constructor"
    },
    {
      "inputs": [
        {
          "internalType": "address",
          "name": "sender",
          "type": "address"
        },
        {
          "internalType": "uint256",
          "name": "tokenId",
          "type": "uint256"
        },
        {
          "internalType": "address",
          "name": "owner",
          "type": "address"
        }
      ],
      "name": "ERC721IncorrectOwner",
      "type": "error"
    },
    {
      "inputs": [
        {
          "internalType": "address",
          "name": "operator",
          "type": "address"
        },
        {
          "internalType": "uint256",
          "name": "tokenId",
          "type": "uint256"
        }
      ],
      "name": "ERC721InsufficientApproval",
      "type": "error"
    },
    {
      "inputs": [
        {
          "internalType": "address",
          "name": "approver",
          "type": "address"
        }
      ],
      "name": "ERC721InvalidApprover",
      "type": "error"
    },
    {
      "inputs": [
        {
          "internalType": "address",
          "name": "operator",
          "type": "address"
        }
      ],
      "name": "ERC721InvalidOperator",
      "type": "error"
    },
    {
      "inputs": [
        {
          "internalType": "address",
          "name": "owner",
          "type": "address"
        }
      ],
      "name": "ERC721InvalidOwner",
      "type": "error"
    },
    {
      "inputs": [
        {
          "internalType": "address",
          "name": "receiver",
          "type": "address"
        }
      ],
      "name": "ERC721InvalidReceiver",
      "type": "error"
    },
    {
      "inputs": [
        {
          "internalType": "address",
          "name": "sender",
          "type": "address"
        }
      ],
      "name": "ERC721InvalidSender",
      "type": "error"
    },
    {
      "inputs": [
        {
          "internalType": "uint256",
          "name": "tokenId",
          "type": "uint256"
        }
      ],
      "name": "ERC721NonexistentToken",
      "type": "error"
    },
    {
      "inputs": [
        {
          "internalType": "address",
          "name": "owner",
          "type": "address"
        }
      ],
      "name": "OwnableInvalidOwner",
      "type": "error"
    },
    {
      "inputs": [
        {
          "internalType": "address",
          "name": "account",
          "type": "address"
        }
      ],
      "name": "OwnableUnauthorizedAccount",
      "type": "error"
    },
    {
      "anonymous": false,
      "inputs": [
        {
          "indexed": true,
          "internalType": "address",
          "name": "owner",
          "type": "address"
        },
        {
          "indexed": true,
          "internalType": "address",
          "name": "approved",
          "type": "address"
        },
        {
          "indexed": true,
          "internalType": "uint256",
          "name": "tokenId",
          "type": "uint256"
        }
      ],
      "name": "Approval",
      "type": "event"
    },
    {
      "anonymous": false,
      "inputs": [
        {
          "indexed": true,
          "internalType": "address",
          "name": "owner",
          "type": "address"
        },
        {
          "indexed": true,
          "internalType": "address",
          "name": "operator",
          "type": "address"
        },
        {
          "indexed": false,
          "internalType": "bool",
          "name": "approved",
          "type": "bool"
        }
      ],
      "name": "ApprovalForAll",
      "type": "event"
    },
    {
      "anonymous": false,
      "inputs": [
        {
          "indexed": true,
          "internalType": "address",
          "name": "to",
          "type": "address"
        },
        {
          "indexed": true,
          "internalType": "uint256",
          "name": "tokenId",
          "type": "uint256"
        },
        {
          "indexed": false,
          "internalType": "string",
          "name": "badgeName",
          "type": "string"
        },
        {
          "indexed": false,
          "internalType": "string",
          "name": "location",
          "type": "string"
        },
        {
          "indexed": false,
          "internalType": "enum JejuBadgeNFT.BadgeRarity",
          "name": "rarity",
          "type": "uint8"
        }
      ],
      "name": "BadgeMinted",
      "type": "event"
    },
    {
      "anonymous": false,
      "inputs": [
        {
          "indexed": false,
          "internalType": "uint256",
          "name": "_fromTokenId",
          "type": "uint256"
        },
        {
          "indexed": false,
          "internalType": "uint256",
          "name": "_toTokenId",
          "type": "uint256"
        }
      ],
      "name": "BatchMetadataUpdate",
      "type": "event"
    },
    {
      "anonymous": false,
      "inputs": [
        {
          "indexed": false,
          "internalType": "uint256",
          "name": "_tokenId",
          "type": "uint256"
        }
      ],
      "name": "MetadataUpdate",
      "type": "event"
    },
    {
      "anonymous": false,
      "inputs": [
        {
          "indexed": true,
          "internalType": "address",
          "name": "previousOwner",
          "type": "address"
        },
        {
          "indexed": true,
          "internalType": "address",
          "name": "newOwner",
          "type": "address"
        }
      ],
      "name": "OwnershipTransferred",
      "type": "event"
    },
    {
      "anonymous": false,
      "inputs": [
        {
          "indexed": true,
          "internalType": "address",
          "name": "from",
          "type": "address"
        },
        {
          "indexed": true,
          "internalType": "address",
          "name": "to",
          "type": "address"
        },
        {
          "indexed": true,
          "internalType": "uint256",
          "name": "tokenId",
          "type": "uint256"
        }
      ],
      "name": "Transfer",
      "type": "event"
    },
    {
      "inputs": [
        {
          "internalType": "address",
          "name": "to",
          "type": "address"
        },
        {
          "internalType": "uint256",
          "name": "tokenId",
          "type": "uint256"
        }
      ],
      "name": "approve",
      "outputs": [],
      "stateMutability": "nonpayable",
      "type": "function"
    },
    {
      "inputs": [
        {
          "internalType": "string",
          "name": "",
          "type": "string"
        }
      ],
      "name": "badgeCount",
      "outputs": [
        {
          "internalType": "uint256",
          "name": "",
          "type": "uint256"
        }
      ],
      "stateMutability": "view",
      "type": "function"
    },
    {
      "inputs": [
        {
          "internalType": "uint256",
          "name": "",
          "type": "uint256"
        }
      ],
      "name": "badges",
      "outputs": [
        {
          "internalType": "string",
          "name": "name",
          "type": "string"
        },
        {
          "internalType": "string",
          "name": "description",
          "type": "string"
        },
        {
          "internalType": "string",
          "name": "location",
          "type": "string"
        },
        {
          "internalType": "enum JejuBadgeNFT.BadgeRarity",
          "name": "rarity",
          "type": "uint8"
        },
        {
          "internalType": "uint256",
          "name": "timestamp",
          "type": "uint256"
        },
        {
          "internalType": "string",
          "name": "coordinates",
          "type": "string"
        }
      ],
      "stateMutability": "view",
      "type": "function"
    },
    {
      "inputs": [
        {
          "internalType": "address",
          "name": "owner",
          "type": "address"
        }
      ],
      "name": "balanceOf",
      "outputs": [
        {
          "internalType": "uint256",
          "name": "",
          "type": "uint256"
        }
      ],
      "stateMutability": "view",
      "type": "function"
    },
    {
      "inputs": [
        {
          "internalType": "uint256",
          "name": "tokenId",
          "type": "uint256"
        }
      ],
      "name": "getApproved",
      "outputs": [
        {
          "internalType": "address",
          "name": "",
          "type": "address"
        }
      ],
      "stateMutability": "view",
      "type": "function"
    },
    {
      "inputs": [
        {
          "internalType": "address",
          "name": "user",
          "type": "address"
        }
      ],
      "name": "getBadgeCountByRarity",
      "outputs": [
        {
          "internalType": "uint256",
          "name": "",
          "type": "uint256"
        },
        {
          "internalType": "uint256",
          "name": "",
          "type": "uint256"
        },
        {
          "internalType": "uint256",
          "name": "",
          "type": "uint256"
        }
      ],
      "stateMutability": "view",
      "type": "function"
    },
    {
      "inputs": [
        {
          "internalType": "address",
          "name": "user",
          "type": "address"
        }
      ],
      "name": "getUserBadges",
      "outputs": [
        {
          "internalType": "uint256[]",
          "name": "",
          "type": "uint256[]"
        }
      ],
      "stateMutability": "view",
      "type": "function"
    },
    {
      "inputs": [
        {
          "internalType": "address",
          "name": "user",
          "type": "address"
        },
        {
          "internalType": "string",
          "name": "badgeName",
          "type": "string"
        }
      ],
      "name": "hasBadge",
      "outputs": [
        {
          "internalType": "bool",
          "name": "",
          "type": "bool"
        }
      ],
      "stateMutability": "view",
      "type": "function"
    },
    {
      "inputs": [
        {
          "internalType": "address",
          "name": "owner",
          "type": "address"
        },
        {
          "internalType": "address",
          "name": "operator",
          "type": "address"
        }
      ],
      "name": "isApprovedForAll",
      "outputs": [
        {
          "internalType": "bool",
          "name": "",
          "type": "bool"
        }
      ],
      "stateMutability": "view",
      "type": "function"
    },
    {
      "inputs": [
        {
          "internalType": "address",
          "name": "to",
          "type": "address"
        },
        {
          "internalType": "string",
          "name": "badgeName",
          "type": "string"
        },
        {
          "internalType": "string",
          "name": "description",
          "type": "string"
        },
        {
          "internalType": "string",
          "name": "location",
          "type": "string"
        },
        {
          "internalType": "enum JejuBadgeNFT.BadgeRarity",
          "name": "rarity",
          "type": "uint8"
        },
        {
          "internalType": "string",
          "name": "coordinates",
          "type": "string"
        },
        {
          "internalType": "string",
          "name": "uri",
          "type": "string"
        }
      ],
      "name": "mintBadge",
      "outputs": [],
      "stateMutability": "nonpayable",
      "type": "function"
    },
    {
      "inputs": [],
      "name": "name",
      "outputs": [
        {
          "internalType": "string",
          "name": "",
          "type": "string"
        }
      ],
      "stateMutability": "view",
      "type": "function"
    },
    {
      "inputs": [],
      "name": "owner",
      "outputs": [
        {
          "internalType": "address",
          "name": "",
          "type": "address"
        }
      ],
      "stateMutability": "view",
      "type": "function"
    },
    {
      "inputs": [
        {
          "internalType": "uint256",
          "name": "tokenId",
          "type": "uint256"
        }
      ],
      "name": "ownerOf",
      "outputs": [
        {
          "internalType": "address",
          "name": "",
          "type": "address"
        }
      ],
      "stateMutability": "view",
      "type": "function"
    },
    {
      "inputs": [],
      "name": "renounceOwnership",
      "outputs": [],
      "stateMutability": "nonpayable",
      "type": "function"
    },
    {
      "inputs": [
        {
          "internalType": "address",
          "name": "from",
          "type": "address"
        },
        {
          "internalType": "address",
          "name": "to",
          "type": "address"
        },
        {
          "internalType": "uint256",
          "name": "tokenId",
          "type": "uint256"
        }
      ],
      "name": "safeTransferFrom",
      "outputs": [],
      "stateMutability": "nonpayable",
      "type": "function"
    },
    {
      "inputs": [
        {
          "internalType": "address",
          "name": "from",
          "type": "address"
        },
        {
          "internalType": "address",
          "name": "to",
          "type": "address"
        },
        {
          "internalType": "uint256",
          "name": "tokenId",
          "type": "uint256"
        },
        {
          "internalType": "bytes",
          "name": "data",
          "type": "bytes"
        }
      ],
      "name": "safeTransferFrom",
      "outputs": [],
      "stateMutability": "nonpayable",
      "type": "function"
    },
    {
      "inputs": [
        {
          "internalType": "address",
          "name": "operator",
          "type": "address"
        },
        {
          "internalType": "bool",
          "name": "approved",
          "type": "bool"
        }
      ],
      "name": "setApprovalForAll",
      "outputs": [],
      "stateMutability": "nonpayable",
      "type": "function"
    },
    {
      "inputs": [
        {
          "internalType": "bytes4",
          "name": "interfaceId",
          "type": "bytes4"
        }
      ],
      "name": "supportsInterface",
      "outputs": [
        {
          "internalType": "bool",
          "name": "",
          "type": "bool"
        }
      ],
      "stateMutability": "view",
      "type": "function"
    },
    {
      "inputs": [],
      "name": "symbol",
      "outputs": [
        {
          "internalType": "string",
          "name": "",
          "type": "string"
        }
      ],
      "stateMutability": "view",
      "type": "function"
    },
    {
      "inputs": [
        {
          "internalType": "uint256",
          "name": "tokenId",
          "type": "uint256"
        }
      ],
      "name": "tokenURI",
      "outputs": [
        {
          "internalType": "string",
          "name": "",
          "type": "string"
        }
      ],
      "stateMutability": "view",
      "type": "function"
    },
    {
      "inputs": [],
      "name": "totalSupply",
      "outputs": [
        {
          "internalType": "uint256",
          "name": "",
          "type": "uint256"
        }
      ],
      "stateMutability": "view",
      "type": "function"
    },
    {
      "inputs": [
        {
          "internalType": "address",
          "name": "from",
          "type": "address"
        },
        {
          "internalType": "address",
          "name": "to",
          "type": "address"
        },
        {
          "internalType": "uint256",
          "name": "tokenId",
          "type": "uint256"
        }
      ],
      "name": "transferFrom",
      "outputs": [],
      "stateMutability": "nonpayable",
      "type": "function"
    },
    {
      "inputs": [
        {
          "internalType": "address",
          "name": "newOwner",
          "type": "address"
        }
      ],
      "name": "transferOwnership",
      "outputs": [],
      "stateMutability": "nonpayable",
      "type": "function"
    },
    {
      "inputs": [
        {
          "internalType": "address",
          "name": "",
          "type": "address"
        },
        {
          "internalType": "string",
          "name": "",
          "type": "string"
        }
      ],
      "name": "userHasBadge",
      "outputs": [
        {
          "internalType": "bool",
          "name": "",
          "type": "bool"
        }
      ],
      "stateMutability": "view",
      "type": "function"
    }
  ],
  "bytecode": "0x608060405234801561001057600080fd5b5060405161216538038061216583398101604081905261002f91610137565b806040518060400160405280601b81526020017f4a656a75204469676974616c2050617373706f72742042616467650000000000815250604051806040016040528060098152602001684a454a55424144474560b81b81525081600090816100979190610206565b5060016100a48282610206565b5050506001600160a01b0381166100d557604051631e4fbdf760e01b81526000600482015260240160405180910390fd5b6100de816100e5565b50506102c4565b600780546001600160a01b038381166001600160a01b0319831681179093556040519116919082907f8be0079c531659141344cd1fd0a4f28419497f9722a3daafe3b4186f6b6457e090600090a35050565b60006020828403121561014957600080fd5b81516001600160a01b038116811461016057600080fd5b9392505050565b634e487b7160e01b600052604160045260246000fd5b600181811c9082168061019157607f821691505b6020821081036101b157634e487b7160e01b600052602260045260246000fd5b50919050565b601f82111561020157806000526020600020601f840160051c810160208510156101de5750805b601f840160051c820191505b818110156101fe57600081556001016101ea565b50505b505050565b81516001600160401b0381111561021f5761021f610167565b6102338161022d845461017d565b846101b7565b6020601f821160018114610267576000831561024f5750848201515b600019600385901b1c1916600184901b1784556101fe565b600084815260208120601f198516915b828110156102975787850151825560209485019460019092019101610277565b50848210156102b55786840151600019600387901b60f8161c191681555b50505050600190811b01905550565b611e92806102d36000396000f3fe608060405234801561001057600080fd5b50600436106101585760003560e01c8063715018a6116100c357806398e36d8b1161007c57806398e36d8b14610337578063a22cb4651461035c578063b88d4fde1461036f578063c87b56dd14610382578063e985e9c514610395578063f2fde38b146103a857600080fd5b8063715018a61461027e57806374be50ab146102865780637aaec583146102b15780638da5cb5b146102df5780638f41e098146102f057806395d89b411461032f57600080fd5b806323b872dd1161011557806323b872dd146101ff5780632f97b7101461021257806337c245fe1461022557806342842e0e146102455780636352211e1461025857806370a082311461026b57600080fd5b806301ffc9a71461015d57806306fdde0314610185578063081812fc1461019a578063095ea7b3146101c5578063107b70fa146101da57806318160ddd146101ed575b600080fd5b61017061016b3660046116b7565b6103bb565b60405190151581526020015b60405180910390f35b61018d6103cc565b60405161017c9190611724565b6101ad6101a8366004611737565b61045e565b6040516001600160a01b03909116815260200161017c565b6101d86101d336600461176c565b610487565b005b6101706101e8366004611844565b610496565b6008545b60405190815260200161017c565b6101d861020d366004611891565b6104d7565b6101d86102203660046118dd565b610567565b6102386102333660046119e5565b6107bd565b60405161017c9190611a00565b6101d8610253366004611891565b610883565b6101ad610266366004611737565b6108a3565b6101f16102793660046119e5565b6108ae565b6101d86108f6565b6101f1610294366004611a43565b8051602081830181018051600b8252928201919093012091525481565b6102c46102bf3660046119e5565b61090a565b6040805193845260208401929092529082015260600161017c565b6007546001600160a01b03166101ad565b6101706102fe366004611844565b600a602090815260009283526040909220815180830184018051928152908401929093019190912091525460ff1681565b61018d6109fb565b61034a610345366004611737565b610a0a565b60405161017c96959493929190611aaf565b6101d861036a366004611b1c565b610c66565b6101d861037d366004611b58565b610c71565b61018d610390366004611737565b610c89565b6101706103a3366004611bd3565b610c94565b6101d86103b63660046119e5565b610cc2565b60006103c682610d00565b92915050565b6060600080546103db90611c06565b80601f016020809104026020016040519081016040528092919081815260200182805461040790611c06565b80156104545780601f1061042957610100808354040283529160200191610454565b820191906000526020600020905b81548152906001019060200180831161043757829003601f168201915b5050505050905090565b600061046982610d25565b506000828152600460205260409020546001600160a01b03166103c6565b610492828233610d5e565b5050565b6001600160a01b0382166000908152600a602052604080822090516104bc908490611c40565b9081526040519081900360200190205460ff16905092915050565b6001600160a01b03821661050657604051633250574960e11b8152600060048201526024015b60405180910390fd5b6000610513838333610d6b565b9050836001600160a01b0316816001600160a01b031614610561576040516364283d7b60e01b81526001600160a01b03808616600483015260248201849052821660448201526064016104fd565b50505050565b61056f610e64565b6001600160a01b0387166000908152600a6020526040908190209051610596908890611c40565b9081526040519081900360200190205460ff16156105f65760405162461bcd60e51b815260206004820152601b60248201527f5573657220616c7265616479206861732074686973206261646765000000000060448201526064016104fd565b60088054908190600061060883611c5c565b91905055506106178882610e91565b6106218183610eab565b6040518060c0016040528088815260200187815260200186815260200185600281111561065057610650611a77565b815242602080830191909152604091820186905260008481526009909152208151819061067d9082611cca565b50602082015160018201906106929082611cca565b50604082015160028201906106a79082611cca565b50606082015160038201805460ff191660018360028111156106cb576106cb611a77565b02179055506080820151600482015560a082015160058201906106ee9082611cca565b5050506001600160a01b0388166000908152600a60205260409081902090516001919061071c908a90611c40565b908152604051908190036020018120805492151560ff1990931692909217909155600b9061074b908990611c40565b908152604051908190036020019020805490600061076883611c5c565b919050555080886001600160a01b03167f69509e5d3501d185a6166435fbad5be6af83d4020c9c780dda508a58f1599b998988886040516107ab93929190611d88565b60405180910390a35050505050505050565b606060006107ca836108ae565b90506000816001600160401b038111156107e6576107e6611796565b60405190808252806020026020018201604052801561080f578160200160208202803683370190505b50600854909150600090815b8181101561087857866001600160a01b0316610836826108a3565b6001600160a01b031603610870578084848151811061085757610857611dbd565b60209081029190910101528261086c81611c5c565b9350505b60010161081b565b509195945050505050565b61089e83838360405180602001604052806000815250610c71565b505050565b60006103c682610d25565b60006001600160a01b0382166108da576040516322718ad960e21b8152600060048201526024016104fd565b506001600160a01b031660009081526003602052604090205490565b6108fe610e64565b6109086000610efb565b565b600080600080610919856107bd565b90506000806000805b84518110156109ec5760006009600087848151811061094357610943611dbd565b602090810291909101810151825281019190915260400160009081206003015460ff16915081600281111561097a5761097a611a77565b03610991578461098981611c5c565b9550506109e3565b60018160028111156109a5576109a5611a77565b036109bc57836109b481611c5c565b9450506109e3565b60028160028111156109d0576109d0611a77565b036109e357826109df81611c5c565b9350505b50600101610922565b50919790965090945092505050565b6060600180546103db90611c06565b600960205260009081526040902080548190610a2590611c06565b80601f0160208091040260200160405190810160405280929190818152602001828054610a5190611c06565b8015610a9e5780601f10610a7357610100808354040283529160200191610a9e565b820191906000526020600020905b815481529060010190602001808311610a8157829003601f168201915b505050505090806001018054610ab390611c06565b80601f0160208091040260200160405190810160405280929190818152602001828054610adf90611c06565b8015610b2c5780601f10610b0157610100808354040283529160200191610b2c565b820191906000526020600020905b815481529060010190602001808311610b0f57829003601f168201915b505050505090806002018054610b4190611c06565b80601f0160208091040260200160405190810160405280929190818152602001828054610b6d90611c06565b8015610bba5780601f10610b8f57610100808354040283529160200191610bba565b820191906000526020600020905b815481529060010190602001808311610b9d57829003601f168201915b5050505060038301546004840154600585018054949560ff9093169491935090610be390611c06565b80601f0160208091040260200160405190810160405280929190818152602001828054610c0f90611c06565b8015610c5c5780601f10610c3157610100808354040283529160200191610c5c565b820191906000526020600020905b815481529060010190602001808311610c3f57829003601f168201915b5050505050905086565b610492338383610f4d565b610c7c8484846104d7565b6105613385858585610fec565b60606103c682611117565b6001600160a01b03918216600090815260056020908152604080832093909416825291909152205460ff1690565b610cca610e64565b6001600160a01b038116610cf457604051631e4fbdf760e01b8152600060048201526024016104fd565b610cfd81610efb565b50565b60006001600160e01b03198216632483248360e11b14806103c657506103c682611228565b6000818152600260205260408120546001600160a01b0316806103c657604051637e27328960e01b8152600481018490526024016104fd565b61089e8383836001611278565b6000828152600260205260408120546001600160a01b0390811690831615610d9857610d9881848661137e565b6001600160a01b03811615610dd657610db5600085600080611278565b6001600160a01b038116600090815260036020526040902080546000190190555b6001600160a01b03851615610e05576001600160a01b0385166000908152600360205260409020805460010190555b60008481526002602052604080822080546001600160a01b0319166001600160a01b0389811691821790925591518793918516917fddf252ad1be2c89b69c2b068fc378daa952ba7f163c4a11628f55a4df523b3ef91a4949350505050565b6007546001600160a01b031633146109085760405163118cdaa760e01b81523360048201526024016104fd565b6104928282604051806020016040528060008152506113e2565b6000828152600660205260409020610ec38282611cca565b506040518281527ff8e1a15aba9398e019f0b49df1a4fde98ee17ae345cb5f6b5e2c27f5033e8ce79060200160405180910390a15050565b600780546001600160a01b038381166001600160a01b0319831681179093556040519116919082907f8be0079c531659141344cd1fd0a4f28419497f9722a3daafe3b4186f6b6457e090600090a35050565b6001600160a01b038216610f7f57604051630b61174360e31b81526001600160a01b03831660048201526024016104fd565b6001600160a01b03838116600081815260056020908152604080832094871680845294825291829020805460ff191686151590811790915591519182527f17307eab39ab6107e8899845ad3d59bd9653f200f220920489ca2b5937696c31910160405180910390a3505050565b6001600160a01b0383163b1561111057604051630a85bd0160e11b81526001600160a01b0384169063150b7a029061102e908890889087908790600401611dd3565b6020604051808303816000875af1925050508015611069575060408051601f3d908101601f1916820190925261106691810190611e10565b60015b6110d2573d808015611097576040519150601f19603f3d011682016040523d82523d6000602084013e61109c565b606091505b5080516000036110ca57604051633250574960e11b81526001600160a01b03851660048201526024016104fd565b805181602001fd5b6001600160e01b03198116630a85bd0160e11b1461110e57604051633250574960e11b81526001600160a01b03851660048201526024016104fd565b505b5050505050565b606061112282610d25565b506000828152600660205260408120805461113c90611c06565b80601f016020809104026020016040519081016040528092919081815260200182805461116890611c06565b80156111b55780601f1061118a576101008083540402835291602001916111b5565b820191906000526020600020905b81548152906001019060200180831161119857829003601f168201915b5050505050905060006111d360408051602081019091526000815290565b905080516000036111e5575092915050565b8151156112175780826040516020016111ff929190611e2d565b60405160208183030381529060405292505050919050565b611220846113fa565b949350505050565b60006001600160e01b031982166380ac58cd60e01b148061125957506001600160e01b03198216635b5e139f60e01b145b806103c657506301ffc9a760e01b6001600160e01b03198316146103c6565b808061128c57506001600160a01b03821615155b1561134e57600061129c84610d25565b90506001600160a01b038316158015906112c85750826001600160a01b0316816001600160a01b031614155b80156112db57506112d98184610c94565b155b156113045760405163a9fbf51f60e01b81526001600160a01b03841660048201526024016104fd565b811561134c5783856001600160a01b0316826001600160a01b03167f8c5be1e5ebec7d5bd14f71427d1e84f3dd0314c0f7b2291e5b200ac8c7c3b92560405160405180910390a45b505b5050600090815260046020526040902080546001600160a01b0319166001600160a01b0392909216919091179055565b61138983838361146f565b61089e576001600160a01b0383166113b757604051637e27328960e01b8152600481018290526024016104fd565b60405163177e802f60e01b81526001600160a01b0383166004820152602481018290526044016104fd565b6113ec83836114d2565b61089e336000858585610fec565b606061140582610d25565b50600061141d60408051602081019091526000815290565b9050600081511161143d5760405180602001604052806000815250611468565b8061144784611537565b604051602001611458929190611e2d565b6040516020818303038152906040525b9392505050565b60006001600160a01b038316158015906112205750826001600160a01b0316846001600160a01b031614806114a957506114a98484610c94565b806112205750506000908152600460205260409020546001600160a01b03908116911614919050565b6001600160a01b0382166114fc57604051633250574960e11b8152600060048201526024016104fd565b600061150a83836000610d6b565b90506001600160a01b0381161561089e576040516339e3563760e11b8152600060048201526024016104fd565b60606000611544836115c9565b60010190506000816001600160401b0381111561156357611563611796565b6040519080825280601f01601f19166020018201604052801561158d576020820181803683370190505b5090508181016020015b600019016f181899199a1a9b1b9c1cb0b131b232b360811b600a86061a8153600a850494508461159757509392505050565b60008072184f03e93ff9f4daa797ed6e38ed64bf6a1f0160401b83106116085772184f03e93ff9f4daa797ed6e38ed64bf6a1f0160401b830492506040015b6d04ee2d6d415b85acef81000000008310611634576d04ee2d6d415b85acef8100000000830492506020015b662386f26fc10000831061165257662386f26fc10000830492506010015b6305f5e100831061166a576305f5e100830492506008015b612710831061167e57612710830492506004015b60648310611690576064830492506002015b600a83106103c65760010192915050565b6001600160e01b031981168114610cfd57600080fd5b6000602082840312156116c957600080fd5b8135611468816116a1565b60005b838110156116ef5781810151838201526020016116d7565b50506000910152565b600081518084526117108160208601602086016116d4565b601f01601f19169290920160200192915050565b60208152600061146860208301846116f8565b60006020828403121561174957600080fd5b5035919050565b80356001600160a01b038116811461176757600080fd5b919050565b6000806040838503121561177f57600080fd5b61178883611750565b946020939093013593505050565b634e487b7160e01b600052604160045260246000fd5b6000806001600160401b038411156117c6576117c6611796565b50604051601f19601f85018116603f011681018181106001600160401b03821117156117f4576117f4611796565b60405283815290508082840185101561180c57600080fd5b83836020830137600060208583010152509392505050565b600082601f83011261183557600080fd5b611468838335602085016117ac565b6000806040838503121561185757600080fd5b61186083611750565b915060208301356001600160401b0381111561187b57600080fd5b61188785828601611824565b9150509250929050565b6000806000606084860312156118a657600080fd5b6118af84611750565b92506118bd60208501611750565b929592945050506040919091013590565b80356003811061176757600080fd5b600080600080600080600060e0888a0312156118f857600080fd5b61190188611750565b965060208801356001600160401b0381111561191c57600080fd5b6119288a828b01611824565b96505060408801356001600160401b0381111561194457600080fd5b6119508a828b01611824565b95505060608801356001600160401b0381111561196c57600080fd5b6119788a828b01611824565b945050611987608089016118ce565b925060a08801356001600160401b038111156119a257600080fd5b6119ae8a828b01611824565b92505060c08801356001600160401b038111156119ca57600080fd5b6119d68a828b01611824565b91505092959891949750929550565b6000602082840312156119f757600080fd5b61146882611750565b602080825282518282018190526000918401906040840190835b81811015611a38578351835260209384019390920191600101611a1a565b509095945050505050565b600060208284031215611a5557600080fd5b81356001600160401b03811115611a6b57600080fd5b61122084828501611824565b634e487b7160e01b600052602160045260246000fd5b60038110611aab57634e487b7160e01b600052602160045260246000fd5b9052565b60c081526000611ac260c08301896116f8565b8281036020840152611ad481896116f8565b90508281036040840152611ae881886116f8565b9050611af76060840187611a8d565b84608084015282810360a0840152611b0f81856116f8565b9998505050505050505050565b60008060408385031215611b2f57600080fd5b611b3883611750565b915060208301358015158114611b4d57600080fd5b809150509250929050565b60008060008060808587031215611b6e57600080fd5b611b7785611750565b9350611b8560208601611750565b92506040850135915060608501356001600160401b03811115611ba757600080fd5b8501601f81018713611bb857600080fd5b611bc7878235602084016117ac565b91505092959194509250565b60008060408385031215611be657600080fd5b611bef83611750565b9150611bfd60208401611750565b90509250929050565b600181811c90821680611c1a57607f821691505b602082108103611c3a57634e487b7160e01b600052602260045260246000fd5b50919050565b60008251611c528184602087016116d4565b9190910192915050565b600060018201611c7c57634e487b7160e01b600052601160045260246000fd5b5060010190565b601f82111561089e57806000526020600020601f840160051c81016020851015611caa5750805b601f840160051c820191505b818110156111105760008155600101611cb6565b81516001600160401b03811115611ce357611ce3611796565b611cf781611cf18454611c06565b84611c83565b6020601f821160018114611d2b5760008315611d135750848201515b600019600385901b1c1916600184901b178455611110565b600084815260208120601f198516915b82811015611d5b5787850151825560209485019460019092019101611d3b565b5084821015611d795786840151600019600387901b60f8161c191681555b50505050600190811b01905550565b606081526000611d9b60608301866116f8565b8281036020840152611dad81866116f8565b9150506112206040830184611a8d565b634e487b7160e01b600052603260045260246000fd5b6001600160a01b0385811682528416602082015260408101839052608060608201819052600090611e06908301846116f8565b9695505050505050565b600060208284031215611e2257600080fd5b8151611468816116a1565b60008351611e3f8184602088016116d4565b835190830190611e538183602088016116d4565b0194935050505056fea2646970667358221220156d3d1d7788f4d506642922150b875adf718e4411b713afcbe953d2e703363364736f6c634300081b0033",
  "linkReferences": {},
  "deployedLinkReferences": {}
}